:100000000C9472000C947E000C947E000C947E0084
:100010000C947E000C947E000C947E000C947E0068
:100020000C947E000C947E000C947E000C947E0058
:100030000C947E000C947E000C947E000C947E0048
:100040000C947E000C947E000C947E000C947E0038
:100050000C947E000C947E000C947E000C947E0028
:100060000C947E000C947E000C947E000C947E0018
:100070000C947E000C947E000C947E000C947E0008
:100080000C947E000C947E000C947E000C947E00F8
:100090000C947E000C947E000C947E000C947E00E8
:1000A0000C947E000C947E000C947E000C947E00D8
:1000B0000C947E000C947E000C947E000C947E00C8
:1000C0000C947E000C947E000C947E000C947E00B8
:1000D0000C947E000C947E000C947E000C947E00A8
:1000E0000C947E0011241FBECFEFD1E2DEBFCDBF46
:1000F00000E00CBF0E9480000C94E0040C9400000F
:100100000F931F93DF93CF930F92CDB7DEB760E8C5
:1001100075E280E090E040E00E94B80060E875E29F
:1001200080E090E041E00E94B8008E010F5F1F4F19
:1001300006C0C80161E00E94A4010097A1F0C801B7
:1001400060E00E94A4010097A1F7898161E00E940C
:100150007802898160E00E947802C80161E00E9413
:10016000A401009761F7898160E00E947802E7CFDF
:10017000CF92DF92EF92FF921F936B017C01142FBD
:10018000CC0CDD1CEE1CFF1CCC0CDD1CEE1CFF1C83
:10019000CC0CDD1CEE1CFF1CCC0CDD1CEE1CFF1C73
:1001A00060E072E18AE790E0A70196010E94BE0438
:1001B00021503040404050401130F1F11130E0F416
:1001C000822F992787FD9095892F990F990B8093FE
:1001D000C5002093C4008091C0008E7F8093C00032
:1001E00088E18093C10086E08093C2001F91FF9058
:1001F000EF90DF90CF9008951230D1F11330B1F726
:10020000822F992787FD9095892F990F990B8093BD
:10021000350120933401809130018E7F809330012D
:1002200088E18093310186E0809332011F91FF9035
:10023000EF90DF90CF900895822F992787FD9095BA
:10024000892F990F990B8093CD002093CC0080913A
:10025000C8008E7F8093C80088E18093C90086E043
:100260008093CA001F91FF90EF90DF90CF90089588
:10027000822F992787FD9095892F990F990B80934D
:10028000D5002093D4008091D0008E7F8093D00041
:1002900088E18093D10086E08093D2001F91FF9087
:1002A000EF90DF90CF9008958130C1F0813038F425
:1002B0002091C00030E020783070C901089582306C
:1002C000A1F0833021F020E030E0C90108952091B1
:1002D000300130E020783070C90108952091C800C5
:1002E00030E020783070C90108952091D00030E0CE
:1002F00020783070C90108958130C1F0813038F420
:100300002091C00030E020723070C9010895823021
:10031000A1F0833021F020E030E0C9010895209160
:10032000300130E020723070C90108952091C8007A
:1003300030E020723070C90108952091D00030E083
:1003400020723070C90108956130A1F16130A0F4CC
:100350002091C00030E0207830702115310581F007
:100360006130A9F16130B0F42091C600FC01208316
:1003700020E030E0C90108956230B1F0633021F02F
:100380002FEF3FEFC90108952091300130E0207830
:100390003070E3CF6230A1F0633001F12FEFFC0148
:1003A000208320E030E0E6CF2091D00030E02078BC
:1003B0003070D3CF2091C80030E020783070CDCF9E
:1003C0002091D600FC01208320E030E0D3CF2091A3
:1003D000CE00FC01208320E030E0CCCF209136011C
:1003E000FC01208320E030E0C5CF613081F1613035
:1003F00090F42091C00030E020723070211531055A
:1004000071F0613081F16130A0F48093C60020E08A
:1004100030E0C90108956230A1F0633021F02FEF80
:100420003FEFC90108952091300130E02072307013
:10043000E5CF623091F06330E1F020E030E0C901B7
:1004400008952091D00030E020723070D7CF2091F5
:10045000C80030E020723070D1CF8093D60020E009
:1004600030E0C90108958093CE0020E030E0C9015A
:1004700008958093360120E030E0C9010895FC0121
:10048000613071F0662329F58091C00087FFFCCFB1
:10049000613061F0613070F48091C600808308950E
:1004A0008091C80087FFFCCF6130A1F78091CE001A
:1004B00080830895623049F0633019F08FEF8083B4
:1004C000089580913601808308958091D6008083BD
:1004D0000895623019F0633031F0FFCF8091D00081
:1004E00087FDD6CFFBCF8091300187FDD1CFFBCFE9
:1004F000613069F06623F9F49091C00095FFFCCF5C
:10050000613059F0613060F48093C6000895909195
:10051000C80095FFFCCF6130A9F78093CE00089505
:10052000623031F0633009F0089580933601089508
:100530008093D6000895623019F0633031F0FFCF18
:100540009091D00095FDDCCFFBCF9091300195FDCF
:10055000D7CFFBCF6115710509F4D3C0E1E0F0E01E
:1005600020E030E04130D9F1442309F04BC05091F4
:10057000C00057FF11C0413009F47EC04130A0F5E2
:100580005091C600FC01E20FF31F50836150704090
:100590002F5F3F4FE0E0F0E06115710529F03196E3
:1005A0005BE0E93BF50718F3C9010895413009F410
:1005B00066C0413000F55091C600FC01E20FF31F08
:1005C0005083615070402F5F3F4FE0E0F0E06115D5
:1005D000710551F331965BE0E93BF50728F750913F
:1005E000C80057FDE3CFF3CF423009F442C0433097
:1005F000E9F15FEFC7CF4230B1F1433009F442C0B7
:100600005FEFDBCF423051F1433009F45AC061153E
:10061000710551F231968BE0E93BF80728F6611538
:100620007105C1F7C1CF413009F45CC0413068F5B4
:100630005091C600FC01E20FF31F508361507040DF
:100640002F5F3F4FE0E0F0E06115710509F4ACCF9A
:1006500031965BE0E93BF50708F0A6CF5091D0005A
:1006600057FDE1CFF1CF5091D600A7CF5091360181
:1006700089CF5091D60086CF5091CE0083CF509134
:10068000CE009BCF5091360198CF423041F143309C
:1006900061F15FEFCFCF5091C600FC01E20FF31F75
:1006A0005083615070402F5F3F4FE0E0F0E06115F4
:1006B000710509F479CF31965BE0E93BF50708F065
:1006C00073CF5091300157FFF2CF413089F0413064
:1006D00010F3423099F0433071F05FEFDECF50916C
:1006E000D600A8CF5091CE00A5CF50913601A2CF11
:1006F0005091CE00D2CF50913601CFCF5091D6003D
:10070000CCCF20E030E050CF6115710509F4C8C0AE
:10071000E1E0F0E020E030E04130A1F1442309F0D5
:100720004EC0DC01A20FB31F5C91A091C000A5FFD9
:100730000DC0413009F49BC04130A0F55093C60074
:10074000615070402F5F3F4FE0E0F0E061157105B0
:1007500029F031965BE0E93BF50718F3C9010895EC
:10076000423041F55093D600615070402F5F3F4FAB
:10077000E0E0F0E06115710589F331965BE0E93B5B
:10078000F50760F7DC01A20FB31F5C91A091C800D0
:10079000A5FFF0CF413009F46DC0413008F7509308
:1007A000C600E2CF423009F45FC0433049F65093AF
:1007B0003601C6CF4330C1F650933601D5CF423013
:1007C00009F443C0433059F5DC01A20FB31F5C911B
:1007D000A0913001A5FF13C0413009F45EC0413043
:1007E00008F452C0423009F455C0433011F450931C
:1007F0003601615070402F5F3F4FE0E0F0E061153F
:10080000710509F4ABCF31965BE0E93BF507E0F207
:10081000A5CF31968BE0E93BF80708F09FCF611533
:100820007105B9F79BCF5093CE00615070402F5F98
:100830003F4FE0E0F0E06115710509F48FCF31968C
:100840005BE0E93BF50708F089CFDC01A20FB31F9D
:100850005C91A091D000A5FFEECF413021F3413053
:1008600060F45093C600E1CF5093D60069CF509307
:10087000CE0066CF5093CE0077CF423041F0433068
:10088000A1F650933601D1CF5093C600B2CF50930A
:10089000D600CBCF5093D600ACCF5093CE00A9CF8B
:1008A00020E030E05BCFDF93CF930F92CDB7DEB780
:1008B0009FEF8130A1F08823B9F42091C00027FF79
:1008C00007C09091C60099832091C00027FDF9CF01
:1008D0000F90CF91DF9108959091CE0099838091F0
:1008E000C80087FDF9CFF4CF8230C9F0833091F191
:1008F000813058F42091C00030E02078307021150C
:10090000310531F399838130A8F3823059F1833076
:10091000F9F62091300130E020783070F0CF20914E
:10092000D00027FFD5CF9091D60099832091D00099
:1009300027FDF9CFCDCF8230D9F0833049F6209111
:10094000300130E0207830702115310509F29091A6
:1009500036019983813078F72091C00030E020780B
:100960003070F2CF2091D00030E020783070C7CFC7
:100970002091D00030E020783070E6CFA1E21A2E2E
:10098000AA1BBB1BFD010DC0AA1FBB1FEE1FFF1F33
:10099000A217B307E407F50720F0A21BB30BE40B83
:1009A000F50B661F771F881F991F1A9469F76095CA
:1009B0007095809590959B01AC01BD01CF01089584
:0409C000F894FFCFD9
:00000001FF
