:100000000C9472000C9493000C9493000C94930045
:100010000C9493000C9493000C9493000C94930014
:100020000C9493000C9493000C9493000C94930004
:100030000C9493000C9493000C9493000C949300F4
:100040000C9493000C9493000C9493000C949300E4
:100050000C9493000C9493000C9493000C949300D4
:100060000C9493000C9493000C9493000C949300C4
:100070000C9493000C9493000C9493000C949300B4
:100080000C9421050C9493000C9493000C94930011
:100090000C9493000C9493000C9493000C94930094
:1000A0000C9493000C9493000C9493000C94930084
:1000B0000C9493000C9493000C9493000C94930074
:1000C0000C9493000C9493000C9493000C94930064
:1000D0000C9493000C9493000C9493000C94930054
:1000E0000C94930011241FBECFEFD1E2DEBFCDBF31
:1000F00000E00CBF12E0A0E0B2E0E4E9F7E200E0CB
:100100000BBF02C007900D92AE30B107D9F71AE1CC
:10011000AEE0B2E001C01D92A33AB107E1F70E9440
:1001200099000C94C8130C940000FC01808185B9DF
:10013000FDCF8F929F92AF92BF92CF92DF92EF92BC
:10014000FF920F93DF93CF930F920F92CDB7DEB74D
:100150008FE389838EEF8A838FEF84B985B985E930
:10016000882E80E0982EC40160E072E045E550E002
:100170009E012E5F3F4F01E0EE24FF24CC24DD24BE
:10018000AA24BB240E941E0CC40163E072E045E572
:1001900050E09E012F5F3F4F0E941E0C0E94B30E45
:1001A00080E090E00F900F90CF91DF910F91FF9042
:1001B000EF90DF90CF90BF90AF909F908F90089579
:1001C0008FEF84B985B90895AF92BF92CF92DF9235
:1001D000EF92FF920F931F93CF93DF93EC01B62E14
:1001E000A42E8AE190E00E94FB028C01009709F4A2
:1001F00070C080910E0290910F02009709F442C0E6
:10020000BB20E9F5F801118E108EB68AA78AC1933A
:10021000D1937F01CF010E944203C8010C960E9436
:100220004203F80111870087138B028B84E090E072
:100230008B199109958784872689809119028217E5
:10024000D8F030E0C901880F991F880F991F880FD7
:10025000991F820F931F865E9D4FB7010E94460330
:1002600081E0DF91CF911F910F91FF90EF90DF9090
:10027000CF90BF90AF90089520931902E2CFBB2496
:10028000B394C0CF10930F0200930E028AE192E064
:100290000E94340383E292E00E94340366E3E62E78
:1002A00062E0F62EC7010E9434035FE3C52E52E0E0
:1002B000D52EC6010E94340380E192E00E943403EF
:1002C000F0923302E0923202D0923502C0923402B0
:1002D00097CF8FEFC6CF0F931F93CF93DF93EB0191
:1002E0000091300210913102080F191F80910E0207
:1002F00090910F0202960E94AA0360910E027091E3
:100300000F02FB011383028380913002909131022E
:1003100008171907C0F46E5F7F4F809134029091E7
:1003200035020E946B03209749F060910E02709194
:100330000F02645F7F4FCE010E946B03DF91CF916C
:100340001F910F9108956E5F7F4F809132029091BF
:1003500033020E946B03E7CF0F931F93CF93DF937A
:1003600080911002882361F1F894E0911502F091D8
:100370001602C681D781CE010C960E94AA037894FA
:100380008E010E5F1F4FC8010E94AA032E89809123
:100390001902821710F42093190230E0C901880F66
:1003A000991F880F991F880F991F820F931F865ED0
:1003B0009D4FB8010E944603809110028823A1F648
:1003C0000E94A40F20912C0230912D02AC01421BFF
:1003D000530B9A0150932F0240932E0280913002CA
:1003E000909131022115310509F468C0019690936E
:1003F0003102809330022150304030932F022093FD
:100400002E02009709F4B2C0E0913202F09133025B
:100410002081222309F44AC00580F681E02DC6819F
:10042000D7812A813B818217930778F43FC00580EA
:10043000F681E02DC681D781809130029091310202
:100440002A813B818217930788F1F8948E010E5F11
:100450001F4FC8010E94AA038C899D89009721F033
:10046000CE010C960E94AA0378942E8980911902DD
:10047000821710F42093190230E0C901880F991FE8
:10048000880F991F880F991F820F931F865E9D4FBB
:10049000B8010E944603E0913202F091330280815C
:1004A000882329F6809130029091310220912E020A
:1004B00030912F022115310509F098CF90932D022C
:1004C00080932C0240911902842F90E09C01220F0E
:1004D000331F220F331F220F331FF901E80FF91FBB
:1004E000E65EFD4F50815523D1F4442321F439C0F9
:1004F000442309F44CC04150842F90E09C01220F0A
:10050000331F220F331F220F331FF901E80FF91F8A
:10051000E65EFD4F5081552359F340931902820F37
:10052000931FDC01A65EBD4F1196ED91FC911297D1
:100530000280F381E02D1296FC93EE931197835E77
:100540009D4FE817F90751F1A681B781B0930F02CB
:10055000A0930E02ED91FC911197CD0157966C91ED
:100560001995DF91CF911F910F910895209132023B
:1005700030913302E0913402F0913502F09333026E
:10058000E0933202309335022093340241CF10922F
:100590001902DF91CF911F910F9108950280F3818D
:1005A000E02D1296FC93EE931197CECF0F931F93ED
:1005B000CF93DF93DC011596ED91FC911697C681E0
:1005C000D7818E01045F1F4FC8010E94AA0380E1FA
:1005D00092E0B8010E944603E0910E02F0910F02F2
:1005E00081E02E899689291708F480E0DF91CF9168
:1005F0001F910F910895EF92FF920F931F93CF9346
:10060000DF938C010E949E0FC0914802D091490255
:100610000C0F1D1F28E10030120760F0C0E0D0E091
:100620000E947010CE01DF91CF911F910F91FF902A
:10063000EF900895C017D10788F7C65BDD4F109380
:10064000490200934802ECCF08951092490210929B
:100650004802089520E038E18091480290914902D3
:10066000281B390BC9010895FC01039692838183ED
:100670002FEF3FEF3483238396838583908787838F
:1006800010820895FC01118610860895CF93DF93A0
:10069000FC01DB0121813281E9018A819B81139672
:1006A0009C938E93129715963C932E9314978A8160
:1006B0009B81EC017D836C83E9017B836A83728378
:1006C00061831996FC93EE93189780818F5F8083E6
:1006D000DF91CF910895CF93DF93FC01DB012D9142
:1006E0003C911197BFEF2F3F3B0789F1DC01139637
:1006F0001296CD91DC91139788819981281739073B
:1007000068F012960D90BC91A02D1296CD91DC91BF
:100710001397888199812817390798F712968D9138
:100720009C911397EB019B838A83EC017D836C83FF
:10073000EB01BD83AC8313967C936E931297F9877C
:10074000E88780818F5F8083DF91CF910895A781B3
:10075000B085E4CFCF93DF93FC01A281B381848184
:10076000958115969C938E931497C481D581BB83F4
:10077000AA83A085B18511968D919C9112978E17B1
:100780009F0749F0118610868C9181508C938C9133
:10079000DF91CF9108951296DC93CE931197F2CF0B
:1007A00021E1FC01208392E2929383E3829362939E
:1007B00072931292129280E8829312921292129283
:1007C00082E0829383E0829384E0829385E0829347
:1007D00086E0829387E0829388E0829389E0829327
:1007E00080E18293229382E1829383E1829384E188
:1007F000829385E1829386E1829387E1829388E107
:10080000829389E1829380E2829381E28293929340
:1008100083E282934293529386E2829387E28293A9
:1008200088E2829389E2829380E3829381E38293D8
:100830009F0121503040C901089581E080939900C3
:1008400083EF809398008BE080939100E1E7F0E0E4
:10085000808182608083A0914A1AB0914B1ACD9119
:10086000CDBFDD91DEBFFF91EF91DF91CF91BF91C1
:10087000AF919F918F917F916F915F914F913F9138
:100880002F911F910F91FF90EF90DF90CF90BF902D
:10089000AF909F908F907F906F905F904F903F9020
:1008A0002F901F900F900CBE0F900BBE0F900FBE9D
:1008B0000F90089581E0089508950F920FB6F8946F
:1008C0000F920BB60F920CB60F921F9211242F921B
:1008D0003F924F925F926F927F928F929F92AF92D0
:1008E000BF92CF92DF92EF92FF920F931F932F93BD
:1008F0003F934F935F936F937F938F939F93AF93A8
:10090000BF93CF93DF93EF93FF93A0914A1AB091D7
:100910004B1A0DB60D920EB60D920E94B311A09116
:100920004A1AB0914B1ACD91CDBFDD91DEBFFF9138
:10093000EF91DF91CF91BF91AF919F918F917F9177
:100940006F915F914F913F912F911F910F91FF9068
:10095000EF90DF90CF90BF90AF909F908F907F905F
:100960006F905F904F903F902F901F900F900CBE14
:100970000F900BBE0F900FBE0F9008950F920FB601
:10098000F8940F920BB60F920CB60F921F9211248F
:100990002F923F924F925F926F927F928F929F928F
:1009A000AF92BF92CF92DF92EF92FF920F931F937D
:1009B0002F933F934F935F936F937F938F939F9367
:1009C000AF93BF93CF93DF93EF93FF93A0914A1A16
:1009D000B0914B1A0DB60D920EB60D920E94B80F43
:1009E0000E94B311A0914A1AB0914B1ACD91CDBF7C
:1009F000DD91DEBFFF91EF91DF91CF91BF91AF917C
:100A00009F918F917F916F915F914F913F912F9126
:100A10001F910F91FF90EF90DF90CF90BF90AF901C
:100A20009F908F907F906F905F904F903F902F900E
:100A30001F900F900CBE0F900BBE0F900FBE0F902B
:100A400008950E94BE041895CF93DF93EC012C8D7E
:100A5000222359F488819981009709F446C08A8D30
:100A60008F5F8A8FDF91CF9108954423E1F48C81C9
:100A70009D81422F50E00E94A9132C8D8C819D8175
:100A8000820F911D9D838C832A813B81821793075E
:100A900030F3888199819D838C838A8D8F5F8A8FC3
:100AA000DF91CF9108958E819F81422F50E00E9467
:100AB000A9132C8D30E0309521953F4F8E819F8179
:100AC000820F931F9F838E834881598184179507D6
:100AD00030F68A819B81820F931F9F838E838A8D3C
:100AE0008F5F8A8FDF91CF9108958A819B810E94C9
:100AF00074131B821A82B3CFCF93DF93EC010FB62E
:100B0000F8940F9228813981EB8DF0E04C8D50E004
:100B10004E9FC0014F9F900D5E9F900D1124820F3C
:100B2000931F9B838A831A8E3D832C833197E49F86
:100B3000C001E59F900DF49F900D1124820F931F2B
:100B40009F838E838FEF8D8F8E8F662391F48885A0
:100B5000882331F40F900FBE81E0DF91CF9108958B
:100B6000CE0108960E9468128130A1F70E945D04B0
:100B7000F1CFCE0108960E943403CE0141960E9427
:100B800034030F900FBE81E0DF91CF9108958F92D3
:100B90009F92BF92CF92DF92EF92FF920F931F939B
:100BA000DF93CF930F92CDB7DEB7B82E882381F4B1
:100BB00040E050E0CA010F90CF91DF911F910F915B
:100BC000FF90EF90DF90CF90BF909F908F9008950F
:100BD0008FE190E069830E94FB024C0169810097DC
:100BE00039F30B2D10E0C62EDD24C09E7001C19E8E
:100BF000F00CD09EF00C1124C70101960E94FB025C
:100C00009C01F401918380836981009749F1B38E3F
:100C1000648F0FB6F8940F92E80EF91EF401F38278
:100C2000E282128E95838483015010400C9DC00196
:100C30000D9D900D1C9D900D1124820F931F978385
:100C400086838FEF858F868FC40108960E943403B8
:100C5000C40141960E9434030F900FBEA401AACF95
:100C6000C4010E94240340E050E0A4CF6F927F9221
:100C70009F92AF92BF92CF92DF92EF92FF920F932B
:100C80001F93DF93CF9300D00F920F92CDB7DEB7B3
:100C90008FE190E00E94FB028C01009709F42AC1C9
:100CA000FC01138212821182108215821482178233
:100CB0001682128E81E0838F148E8FEF858F868F40
:100CC00028E0E22EF12CE00EF11EC7010E94340351
:100CD00091E1C92ED12CC00ED11EC6010E94340351
:100CE0001A82198220E083E0A82EB12CAC0EBD1E22
:100CF0003E010894611C711C99249A940FB6F894D3
:100D00000F92F801928D838D981708F4E0C08981C5
:100D10009A81009709F4ECC0222309F474C00F9063
:100D20000FBE0E949E0F0FB6F8940F92F801858DAA
:100D30008F3F09F46CC0F801868D8F3F09F46DC0B8
:100D40000F900FBEC501B3010E94BA12882309F0AB
:100D5000E5C00FB6F8940F92F801928D0F900FBE78
:100D6000F801838D981709F45AC00FB6F8940F92C2
:100D7000F801868D18164CF019C0F801868D815047
:100D8000868F868D181694F4F8018189882371F076
:100D9000C6010E946812882381F30E940013F801A3
:100DA000868D8150868F868D181674F3F801968E85
:100DB0000F900FBE0FB6F8940F92F801858D18169C
:100DC0004CF019C0F801858D8150858F858D1816DE
:100DD00094F4F8018085882371F0C7010E9468129D
:100DE000882381F30E940013F801858D8150858F3F
:100DF000858D181674F3F801958E0F900FBE0E9422
:100E0000701021E07BCFC5010E94AF1288CF158EF4
:100E1000F801868D8F3F09F093CF168E91CF6981AF
:100E20007A81C7010E9400120FB6F8940F92F80160
:100E3000868D18164CF019C0F801868D8150868F6A
:100E4000868D181694F4F8018189882371F0C60103
:100E50000E946812882381F30E940013F801868D96
:100E60008150868F868D181674F3F801968E0F9038
:100E70000FBE0FB6F8940F92F801858D18164CF03E
:100E800019C0F801858D8150858F858D181694F4D1
:100E9000F8018085882371F0C7010E9468128823B9
:100EA00081F30E940013F801858D8150858F858D17
:100EB000181674F3F801958E0F900FBE0E947010F3
:100EC000882309F09ECF0E945D0421E017CFC8015E
:100ED00060E070E040E00E942405F80181898823E9
:100EE00039F0C6010E946812813011F40E945D043D
:100EF0000F900FBEC8010F900F900F900F900F90A2
:100F0000CF91DF911F910F91FF90EF90DF90CF90E5
:100F1000BF90AF909F907F906F9008950FB6F89418
:100F20000F92F801868D18164CF019C0F801868DC5
:100F30008150868F868D181694F4F8018189882354
:100F400071F0C6010E946812882381F30E94001389
:100F5000F801868D8150868F868D181674F38FEF79
:100F6000F801868F0F900FBE0FB6F8940F92F8011C
:100F7000858D18164CF019C0F801858D8150858F2C
:100F8000858D181694F4F8018085882371F0C701C7
:100F90000E946812882381F30E940013F801858D56
:100FA0008150858F858D181674F38FEFF801858F2A
:100FB0000F900FBE0E9470109DCF4F925F926F9264
:100FC0007F928F929F92AF92BF92CF92DF92EF92D9
:100FD000FF920F931F93DF93CF9300D00F920F9246
:100FE000CDB7DEB78C012B015D834C83822E20E0D0
:100FF0005E010894A11CB11C74E0672E712C6C0E6C
:101000007D1E99249A9468E0E62EF12CE80EF91ED4
:1010100051E1C52ED12CC80ED91E0FB6F8940F92EF
:10102000F801928D838D981708F4E0C08C819D8122
:10103000009709F4FEC0222309F474C00F900FBE7C
:101040000E949E0F0FB6F8940F92F801858D8F3F86
:1010500009F46CC0F801868D8F3F09F46DC00F90C4
:101060000FBEC501B3010E94BA12882309F0E5C082
:101070000FB6F8940F92F801928D0F900FBEF80101
:10108000838D981709F45AC00FB6F8940F92F8019F
:10109000868D18164CF019C0F801868D8150868F08
:1010A000868D181694F4F8018189882371F0C601A1
:1010B0000E946812882381F30E940013F801868D34
:1010C0008150868F868D181674F3F801968E0F90D6
:1010D0000FBE0FB6F8940F92F801858D18164CF0DC
:1010E00019C0F801858D8150858F858D181694F46F
:1010F000F8018085882371F0C7010E946812882357
:1011000081F30E940013F801858D8150858F858DB4
:10111000181674F3F801958E0F900FBE0E94701090
:1011200021E07BCFC5010E94AF1288CF158EF80158
:10113000868D8F3F09F093CF168E91CF6C817D8184
:10114000C7010E9400120FB6F8940F92F801868D25
:1011500018164CF019C0F801868D8150868F868D47
:10116000181694F4F8018189882371F0C6010E9451
:101170006812882381F30E940013F801868D815044
:10118000868F868D181674F3F801968E0F900FBE19
:101190000FB6F8940F92F801858D18164CF019C00F
:1011A000F801858D8150858F858D181694F4F8018E
:1011B0008085882371F0C7010E946812882381F31B
:1011C0000E940013F801858D8150858F858D18163A
:1011D00074F3F801958E0F900FBE0E947010882353
:1011E00009F09ECF0E945D0421E017CFC801B20133
:1011F000482D0E942405F8018189882309F07DC0CB
:101200000F900FBE81E00F900F900F900F900F90F6
:10121000CF91DF911F910F91FF90EF90DF90CF90D2
:10122000BF90AF909F908F907F906F905F904F9006
:1012300008950F900FBE80E0E6CF0FB6F8940F929E
:10124000F801868D181614F581898823F9F041E19B
:10125000E42EF12CE00EF11E0BC0F801868D8150BA
:10126000868F868D181694F4F8018189882371F091
:10127000C7010E946812882381F30E940013F801BD
:10128000868D8150868F868D181674F38FEFF80146
:10129000868F0F900FBE0FB6F8940F92F801858DD0
:1012A000181614F580858823F9F038E0E32EF12C28
:1012B000E00EF11E0BC0F801858D8150858F858D64
:1012C000181694F4F8018085882371F0C7010E94F4
:1012D0006812882381F30E940013F801858D8150E4
:1012E000858F858D181674F38FEFF801858F0F9019
:1012F0000FBE0E94701080E086CFC80141960E9408
:101300006812813009F07CCF0E945D0479CF0F9381
:101310001F93CF93DF93EC018A019A8D8B8D9817E1
:1013200030F080E0DF91CF911F910F910895CE01B1
:10133000422F0E9424058E8D8F3F49F08E8D8F5F46
:101340008E8F81E0DF91CF911F910F910895898950
:10135000882311F481E0E6CFCE0141960E94681205
:101360008823C1F301151105A9F381E0F8018083F9
:10137000D9CF4F925F926F927F928F929F92AF924E
:10138000BF92CF92DF92EF92FF920F931F93DF9362
:10139000CF9300D00F920F92CDB7DEB78C01562EAF
:1013A000472E5D834C83822E20E05E010894A11CB1
:1013B000B11C84E0682E712C6C0E7D1E99249A94C9
:1013C000B8E0CB2ED12CC00ED11EA1E1EA2EF12C1B
:1013D000E00EF11E0FB6F8940F92F801828D88236B
:1013E00009F0ECC08C819D81009709F41AC1222379
:1013F00009F483C00F900FBE0E949E0F0FB6F894A1
:101400000F92F801858D8F3F09F4CBC0F801868DCE
:101410008F3F09F4C4C00F900FBEC501B3010E94F5
:10142000BA12882309F016C10FB6F8940F92F8018A
:10143000828D0F900FBE882309F063C0F801808170
:101440009181009709F4AFC06C817D81C7010E9432
:1014500000120FB6F8940F92F801868D18164CF012
:1014600019C0F801868D8150868F868D181694F4E8
:10147000F8018189882371F0C7010E9468128823CE
:1014800081F30E940013F801868D8150868F868D2E
:10149000181674F3F801968E0F900FBE0FB6F894DD
:1014A0000F92F801858D18164CF019C0F801858D42
:1014B0008150858F858D181694F4F80180858823D6
:1014C00071F0C6010E946812882381F30E94001304
:1014D000F801858D8150858F858D181674F3F8017C
:1014E000958E0F900FBE0E947010882311F021E09E
:1014F00071CF0E945D0421E06DCFC5010E94AF1243
:1015000079CF0FB6F8940F92F801868D18164CF02B
:1015100019C0F801868D8150868F868D181694F437
:10152000F8018189882371F0C7010E94681288231D
:1015300081F30E940013F801868D8150868F868D7D
:10154000181674F3F801968E0F900FBE0FB6F8942C
:101550000F92F801858D18164CF019C0F801858D91
:101560008150858F858D181694F4F8018085882325
:1015700071F0C6010E946812882381F30E94001353
:10158000F801858D8150858F858D181674F3F801CB
:10159000958E0F900FBE0E94701021E01BCF168E0B
:1015A0003ACF158E33CF0FB6F8940F92F80182819F
:1015B00093810E9422130F900FBE46CFE680F780E2
:1015C00080819181009791F0448D9701240F311D06
:1015D00037832683628173812617370708F0A4C0FA
:1015E000852D942DB90150E00E94A913882009F09F
:1015F00091C0F801828D8150828F80819181009706
:1016000009F49DC0F8018085882309F489C0C801C8
:1016100008960E946812813009F082C00E945D0421
:101620007FC00F900FBE80E00F900F900F900F9033
:101630000F90CF91DF911F910F91FF90EF90DF906E
:10164000CF90BF90AF909F908F907F906F905F9062
:101650004F9008950FB6F8940F92F801868D1816E2
:1016600014F581898823F9F0F1E1EF2EF12CE00ED9
:10167000F11E0BC0F801868D8150868F868D18165D
:1016800094F4F8018189882371F0C7010E946812DF
:10169000882381F30E940013F801868D8150868F84
:1016A000868D181674F38FEFF801868F0F900FBE9A
:1016B0000FB6F8940F92F801858D181614F58085F1
:1016C0008823F9F0E8E0EE2EF12CE00EF11E0BC0BD
:1016D000F801858D8150858F858D181694F4F80159
:1016E0008085882371F0C7010E946812882381F3E6
:1016F0000E940013F801858D8150858F858D181605
:1017000074F38FEFF801858F0F900FBE0E94701059
:1017100080E08ACFF801F782E6828189882341F44C
:101720000F900FBE81E080CF978386839C0158CFB6
:10173000C80141960E946812882391F36FCF0E94DE
:101740001C13F801938382835DCF0F931F93CF9374
:10175000DF93EC018A018A8D882341F1E881F981C8
:10176000309789F04C8D2E813F81240F311D3F83AE
:101770002E83AA81BB812A173B07A0F4CB01B901B4
:1017800050E00E94A9138A8D81508A8F8D8D8F3FE2
:1017900099F08D8D8F5F8D8F81E0DF91CF911F91BB
:1017A0000F910895FF83EE839F01E8CF80E0DF91E2
:1017B000CF911F910F9108958885882331F481E09E
:1017C000DF91CF911F910F910895CE0108960E944D
:1017D00068128823A1F30115110589F381E0F8014E
:1017E0008083DBCF0FB6F8940F92FC01828D0F90AF
:1017F0000FBE0895FC01828D0895CF93DF93EC0115
:10180000888199810E942403CE010E942403DF91E4
:10181000CF910895FC01928D81E0911180E00895AF
:10182000FC01228D81E0938D291380E00895809141
:101830004D1A8230E0F30E945D04F9CF2F923F925F
:101840004F925F926F927F928F929F92AF92BF92D0
:10185000CF92DF92EF92FF920F931F93CF93DF937C
:101860001C012B014A01390157018AE290E00E94D4
:10187000FB02E82EE7017E01F92EE701209709F42B
:10188000AAC0C114D10409F4E0C0D88ECF8AC60121
:1018900065EA70E0A4010E94B213089481089108DF
:1018A000EF88F88CE80CF91CCE014996B20140E1B2
:1018B00050E00E94B91318A6102F043008F085C01C
:1018C0001E8B19A772E0C72ED12CCC0EDD1EC601CF
:1018D0000E944203CE010C960E944203D987C8871A
:1018E00084E090E0811B91099D878C87DB8BCA8BFC
:1018F000C701B101A3010E94D00399838883A11479
:10190000B10419F0F501D183C0830FB6F8940F929A
:1019100080918D1A8F5F80938D1A80914A1A9091D1
:101920004B1A009709F459C080918E1A882359F4F4
:10193000E0914A1AF0914B1A8689081720F0D0934B
:101940004B1AC0934A1A2E8980918F1A821710F46D
:1019500020938F1A8091901A8F5F8093901A8091B4
:101960004C1A821710F420934C1A30E0C901880FEA
:10197000991F880F991F880F991F820F931F835BF0
:10198000954EB6010E9446030F900FBE80918E1AAD
:10199000882339F0E0914A1AF0914B1A8689801712
:1019A000B0F081E0DF91CF911F910F91FF90EF9008
:1019B000DF90CF90BF90AF909F908F907F906F906F
:1019C0005F904F903F902F90089513E079CF0E9441
:1019D0005D0481E0E7CF8FEFE5CFD0934B1AC09342
:1019E0004A1A80918D1A813009F0ADCF8DE49AE1C9
:1019F0000E94340386E59AE10E9434038FE59AE160
:101A00000E94340388E69AE10E94340361E9E62EDD
:101A10006AE1F62EC7010E9434035AE9A52E5AE165
:101A2000B52EC5010E94340386E79AE10E94340373
:101A30008FE79AE10E943403F0928B1AE0928A1A9F
:101A4000B092891AA092881A7ECFC4010E94FB022C
:101A5000C82ED92ED88ECF8AC114D10409F017CF41
:101A6000C7010E9424038FEF9DCFEF92FF920F9347
:101A70001F93CF93DF93EC010FB6F8940F928091F0
:101A80004A1A90914B1AC817D90709F472C02097C7
:101A900009F46FC08E01B2E0EB2EF12CE00EF11EC6
:101AA000C7010E94AA03F80184899589009721F053
:101AB000C8010C960E94AA038FE79AE1B7010E9421
:101AC00046030F900FBE209739F0DF91CF911F9101
:101AD0000F91FF90EF90089580918E1A882309F05E
:101AE00054C090917F1A80918D1A981709F448C0BC
:101AF0008091751A882331F04BC080914C1A815027
:101B000080934C1A80914C1A90E0FC01EE0FFF1F5D
:101B1000EE0FFF1FEE0FFF1FE80FF91FE35BF54EFF
:101B20008081882351F320914C1A30E0C901880F3D
:101B3000991F880F991F880F991F820F931FDC012F
:101B4000A35BB54E1196ED91FC9112970280F38143
:101B5000E02D1296FC93EE931197805B954EE8175B
:101B6000F907D1F08681978190934B1A80934A1A96
:101B7000ACCF00914A1A10914B1AC0E0D0E08BCF45
:101B800010924B1A10924A1AA0CF0E945D049DCF6A
:101B900081E08093711A99CF0280F381E02D129633
:101BA000FC93EE931197DECFFC01828593852AE1A9
:101BB0008F37920711F080E00895248935898AE1F2
:101BC0002637380729F081E021153105A1F708955E
:101BD00080E00895EF92FF920F931F93DF93CF93CE
:101BE0000F920F92CDB7DEB78C010097A9F08091CC
:101BF0004A1A90914B1A0817190771F00FB6F8940A
:101C00000F92D8011A968D919C911B97BAE18F374C
:101C10009B0759F00F900FBE0F900F90CF91DF915F
:101C20001F910F91FF90EF900895F8018489958995
:101C3000FAE186379F0771F3009761F7B8016E5F8D
:101C40007F4FCB0169837A830E94AA03F80126891A
:101C500080914C1A69817A81821710F420934C1A72
:101C600030E0C901880F991F880F991F880F991FAD
:101C7000820F931F835B954E0E944603E0914A1AA0
:101C8000F0914B1AD80156969C91569786899817D1
:101C900008F4C0CF0E945D04BDCFEF92FF920F9376
:101CA0001F93CF93DF93E82EE7017E01F92EE70122
:101CB0008A859B853AE18F37930749F0FF248F2D62
:101CC000DF91CF911F910F91FF90EF9008958C8934
:101CD0009D892AE18637920789F3009779F78091E9
:101CE000751A882381F5E0914A1AF0914B1AFF2466
:101CF000F3949E898689981708F4FF248E010E5F5D
:101D00001F4FC8010E94AA034E8980914C1A841764
:101D100010F440934C1A50E09A01220F331F220F07
:101D2000331F220F331F240F351FC901835B954ECC
:101D3000B8010E9446038F2DDF91CF911F910F9123
:101D4000FF90EF900895BE01645F7F4F86E79AE1B0
:101D50000E944603FF248F2DDF91CF911F910F9199
:101D6000FF90EF900895CF92DF92EF92FF920F9342
:101D70001F93CF93DF938AE290E00E94FB02E82E4C
:101D8000E7017E01F92EE701209709F48EC085E571
:101D900090E00E94FB02988F8F8B009709F48EC011
:101DA00065EA70E045E550E00E94B2130F89188D96
:101DB0000C5A1F4FC701499667E072E040E150E0BE
:101DC0000E94B91318A61E8A19A6F2E0EF2EF12C74
:101DD000EC0EFD1EC7010E944203CE010C960E942C
:101DE0004203D987C88784E090E09D878C87DB8B8E
:101DF000CA8BC80167E17CE040E050E00E94D0035C
:101E0000998388830FB6F8940F9280918D1A8F5F13
:101E100080938D1A80914A1A90914B1A009709F479
:101E200051C080918E1A882359F4E0914A1AF0919A
:101E30004B1A8689882321F4D0934B1AC0934A1AEF
:101E40002E8980918F1A821710F420938F1A809117
:101E5000901A8F5F8093901A80914C1A821710F419
:101E600020934C1A30E0C901880F991F880F991FE1
:101E7000880F991F820F931F835B954EB7010E94B5
:101E800046030F900FBE80918E1A882321F0809117
:101E90004A1A90914B1AF89481E080938E1A10920E
:101EA000741A1092731A0E941D04DF91CF911F9132
:101EB0000F91FF90EF90DF90CF900895C7010E949F
:101EC0002403F3CFD0934B1AC0934A1A80918D1AF2
:101ED000813009F0B5CF8DE49AE10E94340386E5A4
:101EE0009AE10E9434038FE59AE10E94340388E668
:101EF0009AE10E94340301E91AE1C8010E94340307
:101F0000EAE9CE2EEAE1DE2EC6010E94340386E71E
:101F10009AE10E9434038FE79AE10E943403109300
:101F20008B1A00938A1AD092891AC092881A88CF85
:101F3000F89410928E1A0E945C0408958091751A8C
:101F40008F5F8093751A08950FB6F8940F922091C1
:101F5000731A3091741A0F900FBEC9010895209121
:101F6000731A3091741AC901089580918D1A0895D9
:101F70000F931F93CF93DF938091751A882309F0F5
:101F80008BC08091731A9091741A01969093741A71
:101F90008093731A8091731A9091741A009719F5AF
:101FA00080918A1A90918B1A2091881A3091891AFF
:101FB00030938B1A20938A1A9093891A8093881AE7
:101FC0008091721A8F5F8093721AE0918A1AF09151
:101FD0008B1A8081882309F069C08FEF9FEF90935F
:101FE0000D0280930C022091731A3091741A809123
:101FF0000C0290910D0228173907E0F5DF91CF917F
:102000001F910F910895E0918A1AF0918B1A058023
:10201000F681E02DC681D7818A819B812091731A38
:102020003091741A2817390708F451C08E010E5FD9
:102030001F4FC8010E94AA038C899D89009721F037
:10204000CE010C960E94AA032E8980914C1A821709
:1020500010F420934C1A30E0C901880F991F880FA3
:10206000991F880F991F820F931F835B954EB801AC
:102070000E944603E0918A1AF0918B1A808188238E
:1020800011F68FEF9FEF90930D0280930C02DF917A
:10209000CF911F910F91089580918C1A8F5F80933B
:1020A0008C1ADF91CF911F910F910895E0918A1AB8
:1020B000F0918B1A0580F681E02D0680F781E02DE6
:1020C0008281938190930D0280930C028CCF909328
:1020D0000D0280930C02DF91CF911F910F91089513
:1020E000EF92FF920F931F93DF93CF930F92CDB791
:1020F000DEB70FB6F8940F928091751A81508093D5
:10210000751A8091751A882309F055C080918D1A2F
:10211000882309F450C019828091761A8823D1F15E
:10212000E0917B1AF0917C1AE680F780C7010C964B
:102130000E94AA0387010E5F1F4FC8010E94AA03D5
:10214000D70156962C91569780914C1A821710F40D
:1021500020934C1A30E0C901880F991F880F991FEE
:10216000880F991F820F931F835B954EB8010E94C1
:102170004603E0914A1AF0914B1AD70156969C916A
:1021800056978689981740F2B1E0B9838091761A04
:10219000882331F680918C1A8823C1F4E981E130DB
:1021A00021F08091711A813031F41092711A0E94DD
:1021B0005D0481E001C080E00F900FBE0F90CF91D1
:1021C000DF911F910F91FF90EF90089580918C1AED
:1021D000882359F30E94B80F80918C1A8150809304
:1021E0008C1A80918C1A8823A9F7DFCFCF93DF93C5
:1021F000009729F40E945D04DF91CF91089520910A
:10220000751A2F5F2093751AC091731AD091741AA2
:10221000C80FD91F80914A1A90914B1A02960E94BA
:10222000AA03E0914A1AF0914B1AD383C28380919A
:10223000731A9091741AC817D907F0F080918A1A0E
:1022400090918B1A60914A1A70914B1A6E5F7F4F72
:102250000E946B0380910C0290910D02C817D90760
:1022600020F4D0930D02C0930C020E9470108823BA
:1022700009F2DF91CF9108958091881A9091891A7F
:1022800060914A1A70914B1A6E5F7F4F0E946B03E8
:10229000ECCFCF93DF93FC01EB018091751A8F5F38
:1022A0008093751A80819181C80FD91F2091731A6C
:1022B0003091741A2817390708F041C0C817D90798
:1022C00008F041C08091731A9091741A8C179D0781
:1022D000D0F5D183C08380914A1A90914B1A02960F
:1022E0000E94AA03E0914A1AF0914B1AD383C28349
:1022F0008091731A9091741AC817D90738F1809198
:102300008A1A90918B1A60914A1A70914B1A6E5FDB
:102310007F4F0E946B0380910C0290910D02C817B1
:10232000D90720F4D0930D02C0930C020E947010C4
:10233000882311F40E945D04DF91CF910895C8179E
:10234000D90738F2BFCFD183C083F0CF8091881AEC
:102350009091891A60914A1A70914B1A6E5F7F4F63
:102360000E946B03E3CF8091751A882331F03CC043
:1023700080914C1A815080934C1A80914C1A90E0B5
:10238000FC01EE0FFF1FEE0FFF1FEE0FFF1FE80F08
:10239000F91FE35BF54E8081882351F320914C1A9D
:1023A00030E0C901880F991F880F991F880F991F66
:1023B000820F931FDC01A35BB54E1196ED91FC914A
:1023C00012970280F381E02D1296FC93EE93119701
:1023D000805B954EE817F90759F0868197819093B5
:1023E0004B1A80934A1A089581E08093711A0895D8
:1023F0000280F381E02D1296FC93EE931197EDCFBE
:102400000F931F93CF93DF938B0160914A1A7091C2
:102410004B1A645F7F4F0E946B0380914A1A909120
:102420004B1A02960E94AA038FEF0F3F180709F478
:1024300040C0C091731AD091741AC00FD11FE0919F
:102440004A1AF0914B1AD383C2838091731A9091E8
:10245000741AC817D907E0F080918A1A90918B1AE4
:1024600060914A1A70914B1A6E5F7F4F0E946B0306
:1024700080910C0290910D02C817D90720F4D093D7
:102480000D02C0930C02DF91CF911F910F9108951F
:102490008091881A9091891A60914A1A70914B1A0A
:1024A0006E5F7F4F0E946B03DF91CF911F910F9161
:1024B000089560914A1A70914B1A6E5F7F4F8FE7B3
:1024C0009AE10E944603DF91CF911F910F910895E9
:1024D0000F931F93CF93DF93DC011596ED91FC9141
:1024E0001697C681D7818E01045F1F4FC8010E94D5
:1024F000AA038091751A882349F58E010E5F1F4F3C
:10250000C8010E94AA032E8980914C1A821720F1DB
:1025100030E0C901880F991F880F991F880F991FF4
:10252000820F931F835B954EB8010E944603E09192
:102530004A1AF0914B1A81E02E899689291708F4DE
:1025400080E0DF91CF911F910F91089586E79AE186
:10255000B8010E944603EBCF20934C1AD9CFFC015F
:102560008091721A80838091731A9091741A928369
:1025700081830895FC01DB010FB6F8940F928D91D1
:102580009C9111972FEF8F3F9207B1F12091721A12
:102590003081321771F1418152812091731A30914B
:1025A000741A2417350708F52091731A3091741A9C
:1025B000241B350B28173907C0F42091731A30916A
:1025C000741A821B930B840F951F11969C938E9304
:1025D0008091721A80838091731A9091741A9283F9
:1025E000818380E00F900FBE089581E00F900FBEB1
:1025F000089541815281D8CF80E00F900FBE089599
:1026000081E08093711A0895009779F0FC010788A2
:10261000F08DE02D8081853A69F4319680E090E07C
:1026200001962191253AE1F30895E0914A1AF0913B
:102630004B1AEDCF80E0089520914A1A30914B1A41
:10264000C90108950F931F93CF93DF93EC01009777
:1026500021F18E89E0914A1AF0914B1A96898917D7
:10266000E0F4E0914A1AF0914B1A968924E030E0A8
:10267000291B31093D872C8799E0899FC0011124CE
:10268000835B954E2A853B852817390759F0E091E1
:102690004A1AF0914B1A86898E8BDF91CF911F9148
:1026A0000F9108958E010E5F1F4FC8010E94AA036B
:1026B000E0914A1AF0914B1A26892E8B80914C1A80
:1026C000821710F420934C1A30E0C901880F991F2B
:1026D000880F991F880F991F820F931F835B954E58
:1026E000B8010E944603D9CF0F931F93CF93DF9376
:1026F000EC01009731F19E8989A5981711F18E019F
:102700000E5F1F4FC8010E94AA0349A54E8B242FBC
:1027100030E084E090E0821B930B9D878C87809152
:102720004C1A841798F0C901880F991F880F991FB8
:10273000880F991F820F931F835B954EB8010E94EB
:102740004603DF91CF911F910F91089540934C1A4A
:10275000EACFFB01DC0102C001900D9241505040D4
:10276000D8F70895DC0101C06D9341505040E0F767
:102770000895FB01DC014150504048F001900D925A
:102780000020C9F701C01D9241505040E0F7089564
:04279000F894FFCFEB
:0E2794005430007854300049444C4500FFFF9B
:00000001FF
