:100000000C9472000C9493000C9493000C94930045
:100010000C9493000C9493000C9493000C94930014
:100020000C9493000C9493000C9493000C94930004
:100030000C9493000C9493000C9493000C949300F4
:100040000C9493000C9493000C9493000C949300E4
:100050000C9493000C9493000C9493000C949300D4
:100060000C9493000C9493000C9493000C949300C4
:100070000C9493000C9493000C9493000C949300B4
:100080000C944A050C9493000C9493000C949300E8
:100090000C9493000C9493000C9493000C94930094
:1000A0000C9493000C9493000C9493000C94930084
:1000B0000C9493000C9493000C9493000C94930074
:1000C0000C9493000C9493000C9493000C94930064
:1000D0000C9493000C9493000C9493000C94930054
:1000E0000C94930011241FBECFEFD1E2DEBFCDBF31
:1000F00000E00CBF12E0A0E0B2E0E6EEF7E200E0C4
:100100000BBF02C007900D92A432B107D9F71AE1D4
:10011000A4E2B2E001C01D92A93BB107E1F70E9441
:10012000AB000C94F1130C940000EF92FF92CF936C
:10013000DF93E82EE7017E01F92EE70185B19A8170
:10014000892785B988819981969587959695879510
:100150000E941F11F3CFAF92BF92CF92DF92EF9226
:10016000FF920F93DF93CF93CDB7DEB72C970FB6E7
:10017000F894DEBF0FBECDBF9E012F5F3F4FD90168
:10018000E0E1F2E08CE001900D928150E1F78FEF19
:1001900084B985B985E990E060E072E044E650E01A
:1001A00001E0EE24FF24CC24DD24AA24BB240E94F9
:1001B000470C85E990E064E072E044E650E09E017F
:1001C0002C5F3F4F0E94470C85E990E068E072E0A9
:1001D00044E650E09E01295F3F4F0E94470C85E9AD
:1001E00090E06CE072E044E650E09E01265F3F4FF5
:1001F0000E94470C0E94DC0E80E090E02C960FB627
:10020000F894DEBF0FBECDBFCF91DF910F91FF906D
:10021000EF90DF90CF90BF90AF900895AF92BF92D4
:10022000CF92DF92EF92FF920F931F93CF93DF93C2
:10023000EC01B62EA42E8AE190E00E9425038C01E9
:10024000009709F470C080912402909125020097D4
:1002500009F442C0BB20E9F5F801118E108EB68A70
:10026000A78AC193D1937F01CF010E946C03C8017B
:100270000C960E946C03F80111870087138B028B88
:1002800084E090E08B199109958784872689809175
:100290002F028217D8F030E0C901880F991F880F0C
:1002A000991F880F991F820F931F805D9D4FB70183
:1002B0000E94700381E0DF91CF911F910F91FF9019
:1002C000EF90DF90CF90BF90AF90089520932F02D2
:1002D000E2CFBB24B394C0CF109325020093240235
:1002E00080E392E00E945E0389E392E00E945E0355
:1002F0006CE4E62E62E0F62EC7010E945E0355E52F
:10030000C52E52E0D52EC6010E945E0386E292E021
:100310000E945E03F0924902E0924802D0924B02A2
:10032000C0924A0297CF8FEFC6CF0F931F93CF9300
:10033000DF93EB010091460210914702080F191F4D
:10034000809124029091250202960E94D40360912C
:10035000240270912502FB011383028380914602DF
:100360009091470208171907C0F46E5F7F4F809184
:100370004A0290914B020E949503209749F06091A8
:10038000240270912502645F7F4FCE010E94950385
:10039000DF91CF911F910F9108956E5F7F4F8091F4
:1003A0004802909149020E949503E7CF0F931F9353
:1003B000CF93DF9380912602882361F1F894E09136
:1003C0002B02F0912C02C681D781CE010C960E949F
:1003D000D40378948E010E5F1F4FC8010E94D4038E
:1003E0002E8980912F02821710F420932F0230E083
:1003F000C901880F991F880F991F880F991F820FB5
:10040000931F805D9D4FB8010E947003809126026A
:100410008823A1F60E94CD0F209142023091430221
:10042000AC01421B530B9A01509345024093440286
:1004300080914602909147022115310509F468C068
:1004400001969093470280934602215030403093AA
:10045000450220934402009709F4B2C0E09148029B
:10046000F09149022081222309F44AC00580F681D7
:10047000E02DC681D7812A813B818217930778F4CA
:100480003FC00580F681E02DC681D781809146026C
:10049000909147022A813B818217930788F1F89453
:1004A0008E010E5F1F4FC8010E94D4038C899D8965
:1004B000009721F0CE010C960E94D40378942E89E7
:1004C00080912F02821710F420932F0230E0C9018F
:1004D000880F991F880F991F880F991F820F931FEC
:1004E000805D9D4FB8010E947003E0914802F09139
:1004F00049028081882329F6809146029091470223
:1005000020914402309145022115310509F098CF20
:10051000909343028093420240912F02842F90E0F7
:100520009C01220F331F220F331F220F331FF901AB
:10053000E80FF91FE05DFD4F50815523D1F44423AE
:1005400021F439C0442309F44CC04150842F90E079
:100550009C01220F331F220F331F220F331FF9017B
:10056000E80FF91FE05DFD4F5081552359F340938B
:100570002F02820F931FDC01A05DBD4F1196ED91FC
:10058000FC9112970280F381E02D1296FC93EE937A
:1005900011978D5C9D4FE817F90751F1A681B7813E
:1005A000B0932502A0932402ED91FC911197CD0107
:1005B00057966C911995DF91CF911F910F910895E6
:1005C0002091480230914902E0914A02F0914B0299
:1005D000F0934902E093480230934B0220934A0281
:1005E00041CF10922F02DF91CF911F910F9108956B
:1005F0000280F381E02D1296FC93EE931197CECFFB
:100600000F931F93CF93DF93DC011596ED91FC912F
:100610001697C681D7818E01045F1F4FC8010E94C3
:10062000D40386E292E0B8010E947003E0912402B4
:10063000F091250281E02E899689291708F480E03F
:10064000DF91CF911F910F910895EF92FF920F9339
:100650001F93CF93DF938C010E94C70FC0915E025E
:10066000D0915F020C0F1D1F28E10030120760F0CF
:10067000C0E0D0E00E949910CE01DF91CF911F9190
:100680000F91FF90EF900895C017D10788F7C05AD7
:10069000DD4F10935F0200935E02ECCF089510923D
:1006A0005F0210925E02089520E038E180915E02C0
:1006B00090915F02281B390BC9010895FC01039634
:1006C000928381832FEF3FEF348323839683858347
:1006D0009087878310820895FC0111861086089503
:1006E000CF93DF93FC01DB0121813281E9018A8113
:1006F0009B8113969C938E93129715963C932E9301
:1007000014978A819B81EC017D836C83E9017B8353
:100710006A83728361831996FC93EE9318978081A4
:100720008F5F8083DF91CF910895CF93DF93FC019A
:10073000DB012D913C911197BFEF2F3F3B0789F1D2
:10074000DC0113961296CD91DC91139788819981E3
:100750002817390768F012960D90BC91A02D1296BB
:10076000CD91DC911397888199812817390798F7E3
:1007700012968D919C911397EB019B838A83EC01D8
:100780007D836C83EB01BD83AC8313967C936E9366
:100790001297F987E88780818F5F8083DF91CF91FF
:1007A0000895A781B085E4CFCF93DF93FC01A281A8
:1007B000B3818481958115969C938E931497C481FF
:1007C000D581BB83AA83A085B18511968D919C911B
:1007D00012978E179F0749F0118610868C918150D1
:1007E0008C938C91DF91CF9108951296DC93CE93E8
:1007F0001197F2CF21E1FC01208392E2929383E3EF
:100800008293629372931292129280E88293129270
:100810001292129282E0829383E0829384E0829328
:1008200085E0829386E0829387E0829388E08293DA
:1008300089E0829380E18293229382E1829383E133
:10084000829384E1829385E1829386E1829387E1BA
:10085000829388E1829389E1829380E2829381E2AC
:100860008293929383E282934293529386E282939D
:1008700087E2829388E2829389E2829380E3829383
:1008800081E382939F0121503040C9010895109265
:10089000990089EF809398008BE080939100E1E7C5
:1008A000F0E0808182608083A091601AB091611A2B
:1008B000CD91CDBFDD91DEBFFF91EF91DF91CF9163
:1008C000BF91AF919F918F917F916F915F914F9168
:1008D0003F912F911F910F91FF90EF90DF90CF905C
:1008E000BF90AF909F908F907F906F905F904F9050
:1008F0003F902F901F900F900CBE0F900BBE0F904B
:100900000FBE0F90089581E0089508950F920FB6DD
:10091000F8940F920BB60F920CB60F921F921124FF
:100920002F923F924F925F926F927F928F929F92FF
:10093000AF92BF92CF92DF92EF92FF920F931F93ED
:100940002F933F934F935F936F937F938F939F93D7
:10095000AF93BF93CF93DF93EF93FF93A091601A70
:10096000B091611A0DB60D920EB60D920E94DC1177
:10097000A091601AB091611ACD91CDBFDD91DEBF1B
:10098000FF91EF91DF91CF91BF91AF919F918F91A7
:100990007F916F915F914F913F912F911F910F9197
:1009A000FF90EF90DF90CF90BF90AF909F908F908F
:1009B0007F906F905F904F903F902F901F900F907F
:1009C0000CBE0F900BBE0F900FBE0F9008950F92AC
:1009D0000FB6F8940F920BB60F920CB60F921F92AF
:1009E00011242F923F924F925F926F927F928F923B
:1009F0009F92AF92BF92CF92DF92EF92FF920F93AE
:100A00001F932F933F934F935F936F937F938F9396
:100A10009F93AF93BF93CF93DF93EF93FF93A091F7
:100A2000601AB091611A0DB60D920EB60D920E9429
:100A3000E10F0E94DC11A091601AB091611ACD9172
:100A4000CDBFDD91DEBFFF91EF91DF91CF91BF91DF
:100A5000AF919F918F917F916F915F914F913F9156
:100A60002F911F910F91FF90EF90DF90CF90BF904B
:100A7000AF909F908F907F906F905F904F903F903E
:100A80002F901F900F900CBE0F900BBE0F900FBEBB
:100A90000F9008950E94E7041895CF93DF93EC011F
:100AA0002C8D222359F488819981009709F446C03E
:100AB0008A8D8F5F8A8FDF91CF9108954423E1F46F
:100AC0008C819D81422F50E00E94D2132C8D8C810D
:100AD0009D81820F911D9D838C832A813B8182178A
:100AE000930730F3888199819D838C838A8D8F5FF2
:100AF0008A8FDF91CF9108958E819F81422F50E0A0
:100B00000E94D2132C8D30E0309521953F4F8E817D
:100B10009F81820F931F9F838E8348815981841701
:100B2000950730F68A819B81820F931F9F838E8366
:100B30008A8D8F5F8A8FDF91CF9108958A819B8103
:100B40000E949D131B821A82B3CFCF93DF93EC01D7
:100B50000FB6F8940F9228813981EB8DF0E04C8D1F
:100B600050E04E9FC0014F9F900D5E9F900D11244D
:100B7000820F931F9B838A831A8E3D832C83319728
:100B8000E49FC001E59F900DF49F900D1124820F0A
:100B9000931F9F838E838FEF8D8F8E8F662391F4AB
:100BA0008885882331F40F900FBE81E0DF91CF91CB
:100BB0000895CE0108960E9491128130A1F70E94FB
:100BC0008604F1CFCE0108960E945E03CE014196C5
:100BD0000E945E030F900FBE81E0DF91CF910895D8
:100BE0008F929F92BF92CF92DF92EF92FF920F93DC
:100BF0001F93DF93CF930F92CDB7DEB7B82E882324
:100C000081F440E050E0CA010F90CF91DF911F9135
:100C10000F91FF90EF90DF90CF90BF909F908F90BB
:100C200008958FE190E069830E9425034C0169815A
:100C3000009739F30B2D10E0C62EDD24C09E700105
:100C4000C19EF00CD09EF00C1124C70101960E94A9
:100C500025039C01F401918380836981009749F108
:100C6000B38E648F0FB6F8940F92E80EF91EF4015C
:100C7000F382E282128E95838483015010400C9D92
:100C8000C0010D9D900D1C9D900D1124820F931F8E
:100C9000978386838FEF858F868FC40108960E9485
:100CA0005E03C40141960E945E030F900FBEA40133
:100CB000AACFC4010E944E0340E050E0A4CF6F923F
:100CC0007F929F92AF92BF92CF92DF92EF92FF926C
:100CD0000F931F93DF93CF9300D00F920F92CDB756
:100CE000DEB78FE190E00E9425038C01009709F4A4
:100CF0002AC1FC0113821282118210821582148291
:100D000017821682128E81E0838F148E8FEF858F6B
:100D1000868F28E0E22EF12CE00EF11EC7010E9422
:100D20005E0391E1C92ED12CC00ED11EC6010E94D6
:100D30005E031A82198220E083E0A82EB12CAC0E4B
:100D4000BD1E3E010894611C711C99249A940FB633
:100D5000F8940F92F801928D838D981708F4E0C0F3
:100D600089819A81009709F4ECC0222309F474C0A8
:100D70000F900FBE0E94C70F0FB6F8940F92F801A4
:100D8000858D8F3F09F46CC0F801868D8F3F09F483
:100D90006DC00F900FBEC501B3010E94E3128823FE
:100DA00009F0E5C00FB6F8940F92F801928D0F90FC
:100DB0000FBEF801838D981709F45AC00FB6F89446
:100DC0000F92F801868D18164CF019C0F801868D27
:100DD0008150868F868D181694F4F80181898823B6
:100DE00071F0C6010E949112882381F30E94291399
:100DF000F801868D8150868F868D181674F3F80160
:100E0000968E0F900FBE0FB6F8940F92F801858D55
:100E100018164CF019C0F801858D8150858F858D8D
:100E2000181694F4F8018085882371F0C7010E9498
:100E30009112882381F30E942913F801858D815036
:100E4000858F858D181674F3F801958E0F900FBE5F
:100E50000E94991021E07BCFC5010E94D81288CF53
:100E6000158EF801868D8F3F09F093CF168E91CFA6
:100E700069817A81C7010E9429120FB6F8940F92F6
:100E8000F801868D18164CF019C0F801868D815036
:100E9000868F868D181694F4F8018189882371F065
:100EA000C6010E949112882381F30E942913F80140
:100EB000868D8150868F868D181674F3F801968E74
:100EC0000F900FBE0FB6F8940F92F801858D18168B
:100ED0004CF019C0F801858D8150858F858D1816CD
:100EE00094F4F8018085882371F0C7010E94911263
:100EF000882381F30E942913F801858D8150858F05
:100F0000858D181674F3F801958E0F900FBE0E9410
:100F10009910882309F09ECF0E94860421E017CF04
:100F2000C80160E070E040E00E944D05F801818951
:100F3000882339F0C6010E949112813011F40E9479
:100F400086040F900FBEC8010F900F900F900F9066
:100F50000F90CF91DF911F910F91FF90EF90DF9055
:100F6000CF90BF90AF909F907F906F9008950FB6F5
:100F7000F8940F92F801868D18164CF019C0F801FC
:100F8000868D8150868F868D181694F4F80181899C
:100F9000882371F0C6010E949112882381F30E9478
:100FA0002913F801868D8150868F868D181674F36B
:100FB0008FEFF801868F0F900FBE0FB6F8940F9247
:100FC000F801858D18164CF019C0F801858D8150F7
:100FD000858F858D181694F4F8018085882371F02B
:100FE000C7010E949112882381F30E942913F801FE
:100FF000858D8150858F858D181674F38FEFF801DC
:10100000858F0F900FBE0E9499109DCF4F925F92D7
:101010006F927F928F929F92AF92BF92CF92DF9208
:10102000EF92FF920F931F93DF93CF9300D00F9215
:101030000F92CDB7DEB78C012B015D834C83822EDE
:1010400020E05E010894A11CB11C74E0672E712C95
:101050006C0E7D1E99249A9468E0E62EF12CE80E21
:10106000F91E51E1C52ED12CC80ED91E0FB6F89429
:101070000F92F801928D838D981708F4E0C08C814F
:101080009D81009709F4FEC0222309F474C00F90DB
:101090000FBE0E94C70F0FB6F8940F92F801858D0E
:1010A0008F3F09F46CC0F801868D8F3F09F46DC045
:1010B0000F900FBEC501B3010E94E312882309F00F
:1010C000E5C00FB6F8940F92F801928D0F900FBE05
:1010D000F801838D981709F45AC00FB6F8940F924F
:1010E000F801868D18164CF019C0F801868D8150D4
:1010F000868F868D181694F4F8018189882371F003
:10110000C6010E949112882381F30E942913F801DD
:10111000868D8150868F868D181674F3F801968E11
:101120000F900FBE0FB6F8940F92F801858D181628
:101130004CF019C0F801858D8150858F858D18166A
:1011400094F4F8018085882371F0C7010E94911200
:10115000882381F30E942913F801858D8150858FA2
:10116000858D181674F3F801958E0F900FBE0E94AE
:10117000991021E07BCFC5010E94D81288CF158E2F
:10118000F801868D8F3F09F093CF168E91CF6C8139
:101190007D81C7010E9429120FB6F8940F92F801C1
:1011A000868D18164CF019C0F801868D8150868FF7
:1011B000868D181694F4F8018189882371F0C60190
:1011C0000E949112882381F30E942913F801868DD1
:1011D0008150868F868D181674F3F801968E0F90C5
:1011E0000FBE0FB6F8940F92F801858D18164CF0CB
:1011F00019C0F801858D8150858F858D181694F45E
:10120000F8018085882371F0C7010E94911288231C
:1012100081F30E942913F801858D8150858F858D7A
:10122000181674F3F801958E0F900FBE0E94991056
:10123000882309F09ECF0E94860421E017CFC801C1
:10124000B201482D0E944D05F8018189882309F0DB
:101250007DC00F900FBE81E00F900F900F900F9008
:101260000F90CF91DF911F910F91FF90EF90DF9042
:10127000CF90BF90AF909F908F907F906F905F9036
:101280004F9008950F900FBE80E0E6CF0FB6F89410
:101290000F92F801868D181614F581898823F9F0CC
:1012A00041E1E42EF12CE00EF11E0BC0F801868D19
:1012B0008150868F868D181694F4F80181898823D1
:1012C00071F0C7010E949112882381F30E942913B3
:1012D000F801868D8150868F868D181674F38FEFF6
:1012E000F801868F0F900FBE0FB6F8940F92F80199
:1012F000858D181614F580858823F9F038E0E32EE3
:10130000F12CE00EF11E0BC0F801858D8150858F08
:10131000858D181694F4F8018085882371F0C70133
:101320000E949112882381F30E942913F801858D70
:101330008150858F858D181674F38FEFF801858F96
:101340000F900FBE0E94991080E086CFC801419691
:101350000E949112813009F07CCF0E94860479CFDF
:101360000F931F93CF93DF93EC018A019A8D8B8D9E
:10137000981730F080E0DF91CF911F910F91089581
:10138000CE01422F0E944D058E8D8F3F49F08E8DEC
:101390008F5F8E8F81E0DF91CF911F910F91089524
:1013A0008989882311F481E0E6CFCE0141960E941D
:1013B00091128823C1F301151105A9F381E0F80109
:1013C0008083D9CF4F925F926F927F928F929F923C
:1013D000AF92BF92CF92DF92EF92FF920F931F9343
:1013E000DF93CF9300D00F920F92CDB7DEB78C0171
:1013F000562E472E5D834C83822E20E05E0108949A
:10140000A11CB11C84E0682E712C6C0E7D1E9924E9
:101410009A94B8E0CB2ED12CC00ED11EA1E1EA2EB9
:10142000F12CE00EF11E0FB6F8940F92F801828DA8
:10143000882309F0ECC08C819D81009709F41AC1C2
:10144000222309F483C00F900FBE0E94C70F0FB66E
:10145000F8940F92F801858D8F3F09F4CBC0F80105
:10146000868D8F3F09F4C4C00F900FBEC501B30134
:101470000E94E312882309F016C10FB6F8940F9268
:10148000F801828D0F900FBE882309F063C0F80128
:1014900080819181009709F4AFC06C817D81C70183
:1014A0000E9429120FB6F8940F92F801868D181633
:1014B0004CF019C0F801868D8150868F868D1816E4
:1014C00094F4F8018189882371F0C7010E94911278
:1014D000882381F30E942913F801868D8150868F1D
:1014E000868D181674F3F801968E0F900FBE0FB606
:1014F000F8940F92F801858D18164CF019C0F80178
:10150000858D8150858F858D181694F4F80180851E
:10151000882371F0C6010E949112882381F30E94F2
:101520002913F801858D8150858F858D181674F3E8
:10153000F801958E0F900FBE0E949910882311F02C
:1015400021E071CF0E94860421E06DCFC5010E9489
:10155000D81279CF0FB6F8940F92F801868D18162D
:101560004CF019C0F801868D8150868F868D181633
:1015700094F4F8018189882371F0C7010E949112C7
:10158000882381F30E942913F801868D8150868F6C
:10159000868D181674F3F801968E0F900FBE0FB655
:1015A000F8940F92F801858D18164CF019C0F801C7
:1015B000858D8150858F858D181694F4F80180856E
:1015C000882371F0C6010E949112882381F30E9442
:1015D0002913F801858D8150858F858D181674F338
:1015E000F801958E0F900FBE0E94991021E01BCF3D
:1015F000168E3ACF158E33CF0FB6F8940F92F801AE
:10160000828193810E944B130F900FBE46CFE680DC
:10161000F78080819181009791F0448D9701240F8C
:10162000311D37832683628173812617370708F0BF
:10163000A4C0852D942DB90150E00E94D2138820BA
:1016400009F091C0F801828D8150828F8081918153
:10165000009709F49DC0F8018085882309F489C0AA
:10166000C80108960E949112813009F082C00E9440
:1016700086047FC00F900FBE80E00F900F900F90F8
:101680000F900F90CF91DF911F910F91FF90EF90EE
:10169000DF90CF90BF90AF909F908F907F906F9092
:1016A0005F904F9008950FB6F8940F92F801868DD1
:1016B000181614F581898823F9F0F1E1EF2EF12C49
:1016C000E00EF11E0BC0F801868D8150868F868D4D
:1016D000181694F4F8018189882371F0C7010E94DB
:1016E0009112882381F30E942913F801868D81507D
:1016F000868F868D181674F38FEFF801868F0F9002
:101700000FBE0FB6F8940F92F801858D181614F5D8
:1017100080858823F9F0E8E0EE2EF12CE00EF11E32
:101720000BC0F801858D8150858F858D181694F436
:10173000F8018085882371F0C7010E9491128823E7
:1017400081F30E942913F801858D8150858F858D45
:10175000181674F38FEFF801858F0F900FBE0E945B
:10176000991080E08ACFF801F782E6828189882388
:1017700041F40F900FBE81E080CF978386839C0158
:1017800058CFC80141960E949112882391F36FCFE0
:101790000E944513F801938382835DCF0F931F93BB
:1017A000CF93DF93EC018A018A8D882341F1E88190
:1017B000F981309789F04C8D2E813F81240F311DA6
:1017C0003F832E83AA81BB812A173B07A0F4CB015C
:1017D000B90150E00E94D2138A8D81508A8F8D8D7D
:1017E0008F3F99F08D8D8F5F8D8F81E0DF91CF914D
:1017F0001F910F910895FF83EE839F01E8CF80E052
:10180000DF91CF911F910F9108958885882331F43E
:1018100081E0DF91CF911F910F910895CE0108963D
:101820000E9491128823A1F30115110589F381E02B
:10183000F8018083DBCF0FB6F8940F92FC01828D04
:101840000F900FBE0895FC01828D0895CF93DF9312
:10185000EC01888199810E944E03CE010E944E03C3
:10186000DF91CF910895FC01928D81E0911180E08C
:101870000895FC01228D81E0938D291380E0089565
:101880008091631A8230E0F30E948604F9CF2F9290
:101890003F924F925F926F927F928F929F92AF9200
:1018A000BF92CF92DF92EF92FF920F931F93CF934D
:1018B000DF931C012B014A01390157018AE290E0B4
:1018C0000E942503E82EE7017E01F92EE70120970B
:1018D00009F4AAC0C114D10409F4E0C0D88ECF8A9B
:1018E000C60165EA70E0A4010E94DB130894810838
:1018F0009108EF88F88CE80CF91CCE014996B201EA
:1019000040E150E00E94E21318A6102F043008F0C6
:1019100085C01E8B19A772E0C72ED12CCC0EDD1E00
:10192000C6010E946C03CE010C960E946C03D987FD
:10193000C88784E090E0811B91099D878C87DB8BB1
:10194000CA8BC701B101A3010E94FA03998388835E
:10195000A114B10419F0F501D183C0830FB6F89436
:101960000F928091A31A8F5F8093A31A8091601ABF
:101970009091611A009709F459C08091A41A8823A4
:1019800059F4E091601AF091611A8689081720F0E5
:10199000D093611AC093601A2E898091A51A82177C
:1019A00010F42093A51A8091A61A8F5F8093A61A2F
:1019B0008091621A821710F42093621A30E0C901F4
:1019C000880F991F880F991F880F991F820F931FE7
:1019D0008D59954EB6010E9470030F900FBE8091F5
:1019E000A41A882339F0E091601AF091611A86896F
:1019F0008017B0F081E0DF91CF911F910F91FF90A0
:101A0000EF90DF90CF90BF90AF909F908F907F909E
:101A10006F905F904F903F902F90089513E079CF93
:101A20000E94860481E0E7CF8FEFE5CFD093611A63
:101A3000C093601A8091A31A813009F0ADCF83E67C
:101A40009AE10E945E038CE69AE10E945E0385E7BC
:101A50009AE10E945E038EE79AE10E945E0367EAC4
:101A6000E62E6AE1F62EC7010E945E0350EBA52E1A
:101A70005AE1B52EC5010E945E038CE89AE10E94EE
:101A80005E0385E99AE10E945E03F092A11AE0925A
:101A9000A01AB0929F1AA0929E1A7ECFC4010E94F3
:101AA0002503C82ED92ED88ECF8AC114D10409F0AF
:101AB00017CFC7010E944E038FEF9DCFEF92FF9289
:101AC0000F931F93CF93DF93EC010FB6F8940F920F
:101AD0008091601A9091611AC817D90709F472C0F1
:101AE000209709F46FC08E01B2E0EB2EF12CE00ECE
:101AF000F11EC7010E94D403F801848995890097DB
:101B000021F0C8010C960E94D40385E99AE1B7013F
:101B10000E9470030F900FBE209739F0DF91CF9194
:101B20001F910F91FF90EF9008958091A41A882340
:101B300009F054C09091951A8091A31A981709F44E
:101B400048C080918B1A882331F04BC08091621A73
:101B500081508093621A8091621A90E0FC01EE0F2E
:101B6000FF1FEE0FFF1FEE0FFF1FE80FF91FED59CC
:101B7000F54E8081882351F32091621A30E0C9012B
:101B8000880F991F880F991F880F991F820F931F25
:101B9000DC01AD59B54E1196ED91FC911297028082
:101BA000F381E02D1296FC93EE9311978A59954E8E
:101BB000E817F907D1F0868197819093611A809395
:101BC000601AACCF0091601A1091611AC0E0D0E0A9
:101BD0008BCF1092611A1092601AA0CF0E948604D7
:101BE0009DCF81E08093871A99CF0280F381E02D09
:101BF0001296FC93EE931197DECFFC0182859385BC
:101C00002AE18539920711F080E008952489358909
:101C10008AE12C38380729F081E021153105A1F738
:101C2000089580E00895EF92FF920F931F93DF9342
:101C3000CF930F920F92CDB7DEB78C010097A9F02A
:101C40008091601A9091611A0817190771F00FB608
:101C5000F8940F92D8011A968D919C911B97BAE136
:101C600085399B0759F00F900FBE0F900F90CF91C1
:101C7000DF911F910F91FF90EF900895F8018489F3
:101C80009589FAE18C389F0771F3009761F7B801E5
:101C90006E5F7F4FCB0169837A830E94D403F80182
:101CA00026898091621A69817A81821710F42093C3
:101CB000621A30E0C901880F991F880F991F880F99
:101CC000991F820F931F8D59954E0E947003E091CA
:101CD000601AF091611AD80156969C9156978689A0
:101CE000981708F4C0CF0E948604BDCFEF92FF92F0
:101CF0000F931F93CF93DF93E82EE7017E01F92E18
:101D0000E7018A859B853AE18539930749F0FF24ED
:101D10008F2DDF91CF911F910F91FF90EF9008953C
:101D20008C899D892AE18C38920789F3009779F78D
:101D300080918B1A882381F5E091601AF091611AE5
:101D4000FF24F3949E898689981708F4FF248E0156
:101D50000E5F1F4FC8010E94D4034E898091621A02
:101D6000841710F44093621A50E09A01220F331F37
:101D7000220F331F220F331F240F351FC9018D5926
:101D8000954EB8010E9470038F2DDF91CF911F9166
:101D90000F91FF90EF900895BE01645F7F4F8CE834
:101DA0009AE10E947003FF248F2DDF91CF911F9144
:101DB0000F91FF90EF900895CF92DF92EF92FF92F4
:101DC0000F931F93CF93DF938AE290E00E94250345
:101DD000E82EE7017E01F92EE701209709F48EC075
:101DE00085E590E00E942503988F8F8B009709F47A
:101DF0008EC065EA70E045E550E00E94DB130F8974
:101E0000188D0C5A1F4FC70149966CE172E040E1F2
:101E100050E00E94E21318A61E8A19A6F2E0EF2EE7
:101E2000F12CEC0EFD1EC7010E946C03CE010C9636
:101E30000E946C03D987C88784E090E09D878C87D7
:101E4000DB8BCA8BC80160E47CE040E050E00E947C
:101E5000FA03998388830FB6F8940F928091A31A9E
:101E60008F5F8093A31A8091601A9091611A0097F6
:101E700009F451C08091A41A882359F4E091601AA2
:101E8000F091611A8689882321F4D093611AC09356
:101E9000601A2E898091A51A821710F42093A51A32
:101EA0008091A61A8F5F8093A61A8091621A82177A
:101EB00010F42093621A30E0C901880F991F880F2F
:101EC000991F880F991F820F931F8D59954EB70147
:101ED0000E9470030F900FBE8091A41A882321F0F6
:101EE0008091601A9091611AF89481E08093A41A0D
:101EF00010928A1A1092891A0E944704DF91CF919A
:101F00001F910F91FF90EF90DF90CF900895C70140
:101F10000E944E03F3CFD093611AC093601A809150
:101F2000A31A813009F0B5CF83E69AE10E945E03DF
:101F30008CE69AE10E945E0385E79AE10E945E03C7
:101F40008EE79AE10E945E0307EA1AE1C8010E9447
:101F50005E03E0EBCE2EEAE1DE2EC6010E945E03B8
:101F60008CE89AE10E945E0385E99AE10E945E0393
:101F70001093A11A0093A01AD0929F1AC0929E1A91
:101F800088CFF8941092A41A0E9485040895809135
:101F90008B1A8F5F80938B1A08950FB6F8940F9267
:101FA0002091891A30918A1A0F900FBEC9010895A5
:101FB0002091891A30918A1AC90108958091A31A33
:101FC00008950F931F93CF93DF9380918B1A8823EB
:101FD00009F08BC08091891A90918A1A019690938A
:101FE0008A1A8093891A8091891A90918A1A009787
:101FF00019F58091A01A9091A11A20919E1A309102
:102000009F1A3093A11A2093A01A90939F1A80933D
:102010009E1A8091881A8F5F8093881AE091A01A87
:10202000F091A11A8081882309F069C08FEF9FEF9A
:1020300090932202809321022091891A30918A1A6A
:10204000809121029091220228173907E0F5DF9153
:10205000CF911F910F910895E091A01AF091A11ACC
:102060000580F681E02DC681D7818A819B812091F0
:10207000891A30918A1A2817390708F451C08E013D
:102080000E5F1F4FC8010E94D4038C899D89009761
:1020900021F0CE010C960E94D4032E898091621A01
:1020A000821710F42093621A30E0C901880F991F3B
:1020B000880F991F880F991F820F931F8D59954E76
:1020C000B8010E947003E091A01AF091A11A8081DA
:1020D000882311F68FEF9FEF9093220280932102C5
:1020E000DF91CF911F910F9108958091A21A8F5F78
:1020F0008093A21ADF91CF911F910F910895E091E3
:10210000A01AF091A11A0580F681E02D0680F781D2
:10211000E02D8281938190932202809321028CCFC3
:102120009093220280932102DF91CF911F910F9112
:102130000895EF92FF920F931F93DF93CF930F9227
:10214000CDB7DEB70FB6F8940F9280918B1A8150FD
:1021500080938B1A80918B1A882309F055C0809147
:10216000A31A882309F450C0198280918C1A8823FD
:10217000D1F1E091911AF091921AE680F780C701AF
:102180000C960E94D40387010E5F1F4FC8010E9466
:10219000D403D70156962C9156978091621A8217D4
:1021A00010F42093621A30E0C901880F991F880F3C
:1021B000991F880F991F820F931F8D59954EB80153
:1021C0000E947003E091601AF091611AD70156964F
:1021D0009C9156978689981740F2B1E0B983809117
:1021E0008C1A882331F68091A21A8823C1F4E981E0
:1021F000E13021F08091871A813031F41092871AF2
:102200000E94860481E001C080E00F900FBE0F9015
:10221000CF91DF911F910F91FF90EF9008958091E2
:10222000A21A882359F30E94E10F8091A21A8150CB
:102230008093A21A8091A21A8823A9F7DFCFCF93A7
:10224000DF93009729F40E948604DF91CF910895CF
:1022500020918B1A2F5F20938B1AC091891AD091ED
:102260008A1AC80FD91F8091601A9091611A02963C
:102270000E94D403E091601AF091611AD383C28363
:102280008091891A90918A1AC817D907F0F0809125
:10229000A01A9091A11A6091601A7091611A6E5FF4
:1022A0007F4F0E9495038091210290912202C817CE
:1022B000D90720F4D0932202C09321020E949910E2
:1022C000882309F2DF91CF91089580919E1A909111
:1022D0009F1A6091601A7091611A6E5F7F4F0E9421
:1022E0009503ECCFCF93DF93FC01EB0180918B1A28
:1022F0008F5F80938B1A80819181C80FD91F2091A5
:10230000891A30918A1A2817390708F041C0C8176E
:10231000D90708F041C08091891A90918A1A8C17C8
:102320009D07D0F5D183C0838091601A9091611A86
:1023300002960E94D403E091601AF091611AD3834F
:10234000C2838091891A90918A1AC817D90738F1E7
:102350008091A01A9091A11A6091601A7091611AEF
:102360006E5F7F4F0E94950380912102909122021F
:10237000C817D90720F4D0932202C09321020E94EB
:102380009910882311F40E948604DF91CF9108955B
:10239000C817D90738F2BFCFD183C083F0CF80915F
:1023A0009E1A90919F1A6091601A7091611A6E5FE7
:1023B0007F4F0E949503E3CF80918B1A882331F0E1
:1023C0003CC08091621A81508093621A8091621A97
:1023D00090E0FC01EE0FFF1FEE0FFF1FEE0FFF1F3F
:1023E000E80FF91FED59F54E8081882351F32091B4
:1023F000621A30E0C901880F991F880F991F880F52
:10240000991F820F931FDC01AD59B54E1196ED91C6
:10241000FC9112970280F381E02D1296FC93EE93CB
:1024200011978A59954EE817F90759F086819781D7
:102430009093611A8093601A089581E08093871ABF
:1024400008950280F381E02D1296FC93EE9311978C
:10245000EDCF0F931F93CF93DF938B016091601AA1
:102460007091611A645F7F4F0E9495038091601A9A
:102470009091611A02960E94D4038FEF0F3F1807C4
:1024800009F440C0C091891AD0918A1AC00FD11F97
:10249000E091601AF091611AD383C2838091891A06
:1024A00090918A1AC817D907E0F08091A01A9091EC
:1024B000A11A6091601A7091611A6E5F7F4F0E943D
:1024C00095038091210290912202C817D90720F428
:1024D000D0932202C0932102DF91CF911F910F91DF
:1024E000089580919E1A90919F1A6091601A709140
:1024F000611A6E5F7F4F0E949503DF91CF911F910C
:102500000F9108956091601A7091611A6E5F7F4F0C
:1025100085E99AE10E947003DF91CF911F910F919D
:1025200008950F931F93CF93DF93DC011596ED91E0
:10253000FC911697C681D7818E01045F1F4FC80199
:102540000E94D40380918B1A882349F58E010E5F77
:102550001F4FC8010E94D4032E898091621A8217EE
:1025600020F130E0C901880F991F880F991F880F4B
:10257000991F820F931F8D59954EB8010E947003C9
:10258000E091601AF091611A81E02E8996892917ED
:1025900008F480E0DF91CF911F910F9108958CE8AE
:1025A0009AE1B8010E947003EBCF2093621AD9CF51
:1025B000FC018091881A80838091891A90918A1AEF
:1025C000928381830895FC01DB010FB6F8940F928A
:1025D0008D919C9111972FEF8F3F9207B1F1209130
:1025E000881A3081321771F1418152812091891A04
:1025F00030918A1A2417350708F52091891A3091ED
:102600008A1A241B350B28173907C0F42091891A20
:1026100030918A1A821B930B840F951F11969C93FD
:102620008E938091881A80838091891A90918A1A5A
:102630009283818380E00F900FBE089581E00F9018
:102640000FBE089541815281D8CF80E00F900FBE18
:10265000089581E08093871A0895009779F0FC012E
:102660000788F08DE02D8081853A69F4319680E00D
:1026700090E001962191253AE1F30895E091601AE6
:10268000F091611AEDCF80E008952091601A3091A9
:10269000611AC90108950F931F93CF93DF93EC0143
:1026A000009721F18E89E091601AF091611A968964
:1026B0008917E0F4E091601AF091611A968924E09C
:1026C00030E0291B31093D872C8799E0899FC001A3
:1026D00011248D59954E2A853B852817390759F0C5
:1026E000E091601AF091611A86898E8BDF91CF910B
:1026F0001F910F9108958E010E5F1F4FC8010E9418
:10270000D403E091601AF091611A26892E8B809192
:10271000621A821710F42093621A30E0C901880F00
:10272000991F880F991F880F991F820F931F8D592A
:10273000954EB8010E947003D9CF0F931F93CF938A
:10274000DF93EC01009731F19E8989A5981711F16B
:102750008E010E5F1F4FC8010E94D40349A54E8B06
:10276000242F30E084E090E0821B930B9D878C87C0
:102770008091621A841798F0C901880F991F880FF9
:10278000991F880F991F820F931F8D59954EB8017D
:102790000E947003DF91CF911F910F910895409394
:1027A000621AEACFFB01DC0102C001900D92415098
:1027B0005040D8F70895DC0101C06D93415050405E
:1027C000E0F70895FB01DC014150504048F00190D2
:1027D0000D920020C9F701C01D9241505040E0F712
:0627E0000895F894FFCFFC
:1027E60031487A0032487A0034487A0038487A000C
:1027F600E80301F40104FA00107D004049444C4509
:0428060000FFFF00D0
:00000001FF
