:100000000C9472000C9486000C9486000C9486006C
:100010000C9486000C9486000C9486000C94860048
:100020000C9486000C9486000C9486000C94860038
:100030000C9486000C9486000C9486000C94860028
:100040000C9486000C942F010C9486000C9486006E
:100050000C9486000C9418010C9486000C94860075
:100060000C9486000C9486000C9486000C948600F8
:100070000C9486000C9486000C9486000C948600E8
:100080000C9486000C9486000C9486000C948600D8
:100090000C9486000C9486000C9486000C948600C8
:1000A0000C9486000C9486000C9486000C948600B8
:1000B0000C9486000C9486000C9486000C948600A8
:1000C0000C9486000C9486000C9486000C94860098
:1000D0000C9486000C9486000C9486000C94860088
:1000E0000C94860011241FBECFEFD1E2DEBFCDBF3E
:1000F00000E00CBF12E0A0E0B2E001C01D92A5300C
:10010000B107E1F70E9488000C945D010C94000097
:100110001F9311B81FEF14B90E94460115B921E0D1
:1001200030E1009B43C02093000210920102109224
:100130000202109203021092040280910102909137
:100140000202A0910302B09104028B3E44E59407A1
:1001500040E0A40740E0B40718F5809101029091B7
:100160000202A0910302B09104020196A11DB11DEB
:100170008093010290930202A0930302B0930402C1
:100180008091010290910202A0910302B0910402B9
:100190008B3E44E5940740E0A40740E0B407E8F252
:1001A00085B1832785B9289A0099BDCF10920002A6
:1001B00010920102109202021092030210920402A5
:1001C0008091010290910202A0910302B091040279
:1001D000863D49EA940740E0A40740E0B40718F5DB
:1001E0008091010290910202A0910302B091040259
:1001F0000196A11DB11D8093010290930202A0936C
:100200000302B09304028091010290910202A09136
:100210000302B0910402863D49EA940740E0A40736
:1002200040E0B407E8F285B1822785B92C9A79CFEE
:100230001F920F920FB60F9211248F939F9380916C
:100240000002882329F485B194E0892785B92E9A84
:100250009F918F910F900FBE0F901F9018951F9236
:100260000F920FB60F9211248F939F9380910002EB
:10027000813029F485B190E4892785B92A9A9F9124
:100280008F910F900FBE0F901F90189582EC84BD38
:1002900084E085BD91E097BD82E080936E0020EC04
:1002A000209380002CE0209381001092890090938D
:0E02B000880080936F0078940895F894FFCF33
:00000001FF
